{"abi":[{"type":"constructor","inputs":[],"stateMutability":"nonpayable"},{"type":"receive","stateMutability":"payable"},{"type":"function","name":"ADDRESSES_PROVIDER","inputs":[],"outputs":[{"name":"","type":"address","internalType":"contract IPoolAddressesProvider"}],"stateMutability":"view"},{"type":"function","name":"POOL","inputs":[],"outputs":[{"name":"","type":"address","internalType":"contract IPool"}],"stateMutability":"view"},{"type":"function","name":"executeOperation","inputs":[{"name":"asset","type":"address","internalType":"address"},{"name":"amount","type":"uint256","internalType":"uint256"},{"name":"premium","type":"uint256","internalType":"uint256"},{"name":"initiator","type":"address","internalType":"address"},{"name":"params","type":"bytes","internalType":"bytes"}],"outputs":[{"name":"","type":"bool","internalType":"bool"}],"stateMutability":"nonpayable"},{"type":"function","name":"startFlashLoan","inputs":[],"outputs":[],"stateMutability":"nonpayable"}],"bytecode":{"object":"0x60c06040525f80546001600160a01b0319908116737a250d5630b4cf539739df2c5dacb4c659f2488d179091556001805490911673999237cf10eed962e51b5180dc1df1dba0a6b9d5179055348015610056575f5ffd5b50732f39d218133afab8f2b819b1066c7e434ad94e9e60808190526040805163026b1d5f60e01b81529051829163026b1d5f9160048083019260209291908290030181865afa1580156100ab573d5f5f3e3d5ffd5b505050506040513d601f19601f820116820180604052508101906100cf91906100e1565b6001600160a01b031660a0525061010e565b5f602082840312156100f1575f5ffd5b81516001600160a01b0381168114610107575f5ffd5b9392505050565b60805160a051610efe6101345f395f818160dc0152610a1301525f605d0152610efe5ff3fe608060405260043610610041575f3560e01c80630542975c1461004c5780631b11d0ff1461009c5780637535d246146100cb578063c243022f146100fe575f5ffd5b3661004857005b5f5ffd5b348015610057575f5ffd5b5061007f7f000000000000000000000000000000000000000000000000000000000000000081565b6040516001600160a01b0390911681526020015b60405180910390f35b3480156100a7575f5ffd5b506100bb6100b6366004610acc565b610114565b6040519015158152602001610093565b3480156100d6575f5ffd5b5061007f7f000000000000000000000000000000000000000000000000000000000000000081565b348015610109575f5ffd5b506101126108f8565b005b5f6001600160a01b03871673c02aaa39b223fe8d0a0e5c4f27ead9083c756cc2146101745760405162461bcd60e51b815260206004820152600b60248201526a15dc9bdb99c8185cdcd95d60aa1b60448201526064015b60405180910390fd5b6040516323b872dd60e01b815233600482015230602482015260448101879052869073c02aaa39b223fe8d0a0e5c4f27ead9083c756cc2906323b872dd906064016020604051808303815f875af11580156101d1573d5f5f3e3d5ffd5b505050506040513d601f19601f820116820180604052508101906101f59190610b71565b5060405163095ea7b360e01b8152737a250d5630b4cf539739df2c5dacb4c659f2488d60048201526024810182905273c02aaa39b223fe8d0a0e5c4f27ead9083c756cc29063095ea7b3906044016020604051808303815f875af115801561025f573d5f5f3e3d5ffd5b505050506040513d601f19601f820116820180604052508101906102839190610b71565b50604051602481018290525f9073c02aaa39b223fe8d0a0e5c4f27ead9083c756cc29060440160408051601f198184030181529181526020820180516001600160e01b0316632e1a7d4d60e01b179052516102de9190610b97565b5f604051808303815f865af19150503d805f8114610317576040519150601f19603f3d011682016040523d82523d5f602084013e61031c565b606091505b50509050806103655760405162461bcd60e51b815260206004820152601560248201527408cc2d2d8cac840e8de40eadceee4c2e040ae8aa89605b1b604482015260640161016b565b5f610371836005610a8a565b6040805160028082526060820183529293505f92909160208301908036833750505f54604080516315ab88c960e31b815290519394506001600160a01b039091169263ad5c4648925060048083019260209291908290030181865afa1580156103dc573d5f5f3e3d5ffd5b505050506040513d601f19601f820116820180604052508101906104009190610bc1565b815f8151811061041257610412610bdc565b60200260200101906001600160a01b031690816001600160a01b03168152505073999237cf10eed962e51b5180dc1df1dba0a6b9d58160018151811061045a5761045a610bdc565b6001600160a01b0392831660209182029290920101525f54604051637ff36ab560e01b8152911690637ff36ab590869061049e908690869030904290600401610c33565b5f6040518083038185885af11580156104b9573d5f5f3e3d5ffd5b50505050506040513d5f823e601f3d908101601f191682016040526104e19190810190610c67565b506001546040516370a0823160e01b81523060048201525f916001600160a01b0316906370a0823190602401602060405180830381865afa158015610528573d5f5f3e3d5ffd5b505050506040513d601f19601f8201168201806040525081019061054c9190610d2f565b90505f61055a826005610a8a565b6040805160028082526060820183529293505f92909160208301908036833701905050905073999237cf10eed962e51b5180dc1df1dba0a6b9d5815f815181106105a6576105a6610bdc565b6001600160a01b039283166020918202929092018101919091525f54604080516315ab88c960e31b81529051919093169263ad5c46489260048083019391928290030181865afa1580156105fc573d5f5f3e3d5ffd5b505050506040513d601f19601f820116820180604052508101906106209190610bc1565b8160018151811061063357610633610bdc565b6001600160a01b03928316602091820292909201015260015460405163095ea7b360e01b8152737a250d5630b4cf539739df2c5dacb4c659f2488d60048201526024810186905291169063095ea7b3906044016020604051808303815f875af11580156106a2573d5f5f3e3d5ffd5b505050506040513d601f19601f820116820180604052508101906106c69190610b71565b505f546040516318cbafe560e01b81526001600160a01b03909116906318cbafe5906106fe9086908690869030904290600401610d46565b5f604051808303815f875af1158015610719573d5f5f3e3d5ffd5b505050506040513d5f823e601f3d908101601f191682016040526107409190810190610c67565b505f61074c8d89610d95565b9050478181101561079f5760405162461bcd60e51b815260206004820152601c60248201527f4e6f7420656e6f7567682045544820746f207265706179206c6f616e00000000604482015260640161016b565b5f6107aa8383610da8565b604051909150339084905f81818185875af1925050503d805f81146107ea576040519150601f19603f3d011682016040523d82523d5f602084013e6107ef565b606091505b505080995050886108395760405162461bcd60e51b81526020600482015260146024820152732330b4b632b2103a37903932b830bc903637b0b760611b604482015260640161016b565b80156108e0576040517341ab5a37f318184e122ef2bf043d91638ba1ae319082905f81818185875af1925050503d805f8114610890576040519150601f19603f3d011682016040523d82523d5f602084013e610895565b606091505b505080995050886108e05760405162461bcd60e51b815260206004820152601560248201527411985a5b1959081d1bc81cd95b99081c1c9bd99a5d605a1b604482015260640161016b565b60019a50505050505050505050509695505050505050565b60408051600180825281830190925230915f91906020808301908036833701905050905073c02aaa39b223fe8d0a0e5c4f27ead9083c756cc2815f8151811061094357610943610bdc565b6001600160a01b0392909216602092830291909101909101526040805160018082528183019092525f9181602001602082028036833701905050905069032d26d12e980b600000815f8151811061099c5761099c610bdc565b60209081029190910101526040805160018082528183019092525f918160200160208202803683370190505090505f815f815181106109dd576109dd610bdc565b6020908102919091018101919091526040805191820181525f808352905163ab9c4b5d60e01b8152309291906001600160a01b037f0000000000000000000000000000000000000000000000000000000000000000169063ab9c4b5d90610a54908a908a908a908a908a908a908a90600401610deb565b5f604051808303815f87803b158015610a6b575f5ffd5b505af1158015610a7d573d5f5f3e3d5ffd5b5050505050505050505050565b5f6103e8610a988382610da8565b610aa29085610e92565b610aac9190610ea9565b90505b92915050565b6001600160a01b0381168114610ac9575f5ffd5b50565b5f5f5f5f5f5f60a08789031215610ae1575f5ffd5b8635610aec81610ab5565b955060208701359450604087013593506060870135610b0a81610ab5565b9250608087013567ffffffffffffffff811115610b25575f5ffd5b8701601f81018913610b35575f5ffd5b803567ffffffffffffffff811115610b4b575f5ffd5b896020828401011115610b5c575f5ffd5b60208201935080925050509295509295509295565b5f60208284031215610b81575f5ffd5b81518015158114610b90575f5ffd5b9392505050565b5f82518060208501845e5f920191825250919050565b634e487b7160e01b5f52604160045260245ffd5b5f60208284031215610bd1575f5ffd5b8151610b9081610ab5565b634e487b7160e01b5f52603260045260245ffd5b5f8151808452602084019350602083015f5b82811015610c295781516001600160a01b0316865260209586019590910190600101610c02565b5093949350505050565b848152608060208201525f610c4b6080830186610bf0565b6001600160a01b03949094166040830152506060015292915050565b5f60208284031215610c77575f5ffd5b815167ffffffffffffffff811115610c8d575f5ffd5b8201601f81018413610c9d575f5ffd5b805167ffffffffffffffff811115610cb757610cb7610bad565b8060051b604051601f19603f830116810181811067ffffffffffffffff82111715610ce457610ce4610bad565b604052918252602081840181019290810187841115610d01575f5ffd5b6020850194505b83851015610d2457845180825260209586019590935001610d08565b509695505050505050565b5f60208284031215610d3f575f5ffd5b5051919050565b85815284602082015260a060408201525f610d6460a0830186610bf0565b6001600160a01b0394909416606083015250608001529392505050565b634e487b7160e01b5f52601160045260245ffd5b80820180821115610aaf57610aaf610d81565b81810381811115610aaf57610aaf610d81565b5f8151808452602084019350602083015f5b82811015610c29578151865260209586019590910190600101610dcd565b6001600160a01b038816815260e0602082018190525f90610e0e90830189610bf0565b8281036040840152610e208189610dbb565b90508281036060840152610e348188610dbb565b6001600160a01b038716608085015283810360a085015285518082529091508060208088019084015e5f602082840101526020601f19601f83011683010192505050610e8660c083018461ffff169052565b98975050505050505050565b8082028115828204841417610aaf57610aaf610d81565b5f82610ec357634e487b7160e01b5f52601260045260245ffd5b50049056fea2646970667358221220129e35db8b83412821d5608c02e1ec021544395242d4c2caa4e77274517d5ebd64736f6c634300081c0033","linkReferences":{}},"methodIdentifiers":{"ADDRESSES_PROVIDER()":"0542975c","POOL()":"7535d246","executeOperation(address,uint256,uint256,address,bytes)":"1b11d0ff","startFlashLoan()":"c243022f"},"id":0}